:020000040000FA
:060000000A128A110C280F
:10000800FE00030EF1000A08F2000A128A112C28D9
:100018000A128A110F28F30183010A128A113E2855
:1000280083120313141094101415941194161412B7
:1000380083160313141394138712071687159F1139
:100048001F159F101F1085168C150B178B1708008E
:10005800831203138C1D3128322837281308F00027
:100068007008F3008C1172088A00710E8300FE0E6E
:100078007E0E09000A128A1114200A128A114328D6
:060088000A128A110C2887
:02400E003B3F36
:00000001FF
